:090B9D0054696D65723A003A00DA
:0C0B7C0002130000021700000215000028
:10098100120B59120B167BFF7A0B799D7D017F01AA
:10099100120AB8750C02AB16AA157D017F02120A64
:1009A100F97BFF7A0B79A47D037F02120AB8750CDB
:1009B10002AB18AA177D047F02120AF97BFF7A0B9A
:1009C10079A47D067F02120AB8750C02AB14AA1332
:0909D1007D077F02120AF980BAC9
:03000B00020920C7
:04092000C0E0C0D0A3
:10092400758A66758CFC0512E51270020511C3E523
:100934001294E8E5119403403F7511007512000507
:1009440014E51470020513943CE5139400400E055D
:1009540018E51870020517751300751400C3E5181F
:10096400943CE517940040C60516E516700205157B
:0809740075170075180080B62C
:05097C00D0D0D0E032F4
:100B2D00EF1FAC0670011E4C600B007D027CC7DC14
:050B3D00FEDDFC80EB71
:010B42002290
:060B6D00C2A58F80D2A793
:080B73007F027EEFDEFEDFFCD5
:010B7B002257
:0A0B8900C2A6120B6DC2A7020B7387
:100ADB00CFCDCFCECCCE12083F7C007D0A12083F83
:040AEB00ED2430FFC7
:0A0AEF00D2A6120B6DC2A7020B7312
:100B4300AE07BE0104ED148006BE0209ED243F4446
:060B530080FF120B892255
:100B59007F38120B897F0C120B897F06120B897F54
:040B690001020B89F1
:0A0B9300AC03120B43AF04020AEF9B
:060AB8008B088A09890A7F
:100ABE00120B43E4FDAB08AA09A90A8D82758300C7
:0C0ACE00120800FF6006120AEF0D80E91C
:010ADA0022F9
:0C0A85007F0AEA24FFFDE434FFFC7E0041
:080A91008E0D8F0E8C0F8D10ED
:100A99007F017E00E4FBEBC39510E50F6480F874D9
:0E0AA9008098500AAC0DAD0E12082D0B80E89F
:010AB700221C
:040AF9008A0A8B0BCF
:100AFD00120B43AA0CEAD39400400D120A85AC0ADE
:080B0D00AD0B120ADB1A80EDAA
:010B150022BD
:1009DA00120B43C3EA64809480400B7F2B120AEF08
:1009EA008A1E8B1F800E7F2D120AEFC3E49BF51F10
:1009FA00E49AF51EAA1DEAD39400400D120A85ACAA
:090A0A001EAD1F120ADB1A80ED7B
:010A130022C0
:040A14008A228B2384
:100A1800120B43AA24EAD3940040297F10120A87B4
:100A2800AC22AD23CFCDCFCECCCE12083FEF540FA2
:100A3800FEC3940AEE5004243080022437FF120AC1
:040A4800EF1A80D150
:010A4C002287
:040A4D008A278B2841
:100A5100120B43AA29EAD394004028EA24FFFDE4BB
:100A610034FFFC7F027E00120A91AC27AD28CFCD66
:100A7100CFCECCCE12083FEF54012430FF120AEF43
:030A81001A80D206
:010A8400224F
:100B16005389F0438901C28DD28C758A66758CFC27
:070B2600D2A9D2AFC2B9222F
:030000000208945F
:0C089400787FE4F6D8FD7581290208DBAE
:10080000BB010CE58229F582E5833AF583E02250AD
:1008100006E92582F8E622BBFE06E92582F8E222F7
:0D082000E58229F582E5833AF583E4932211
:10082D00EF8DF0A4A8F0CF8CF0A428CE8DF0A42EDF
:02083D00FE2299
:10083F00BC000BBE0029EF8DF084FFADF022E4CC9D
:10084F00F875F008EF2FFFEE33FEEC33FCEE9DEC66
:10085F00984005FCEE9DFE0FD5F0E9E4CEFD22EDAC
:10086F00F8F5F0EE8420D21CFEADF075F008EF2FF6
:10087F00FFED33FD4007985006D5F0F222C398FDE7
:05088F000FD5F0EA2284
:1008A000020981E493A3F8E493A34003F68001F2E4
:1008B00008DFF48029E493A3F85407240CC8C33359
:1008C000C4540F4420C8834004F456800146F6DF28
:1008D000E4800B0102040810204080900B7CE47E31
:1008E000019360BCA3FF543F30E509541FFEE4931D
:1008F000A360010ECF54C025E060A840B8E493A3E4
:10090000FAE493A3F8E493A3C8C582C8CAC583CA0E
:10091000F0A3C8C582C8CAC583CADFE9DEE780BEC6
:010B8800006C
:00000001FF
