:1008F000EF1FAC0670011E4C600B007D027CC7DC54
:05090000FEDDFC80EBB0
:0109050022CF
:03091300010800D8
:05090E001208D580FE77
:0300230002088C44
:10088C00C0E0C0F0C083C082C0D075D000C000C032
:10089C0001C002C003C004C005C006C00730980EDA
:1008AC00E599F4F5A0E599F4FF120906C298D00772
:1008BC00D006D005D004D003D002D001D000D0D0C7
:0908CC00D082D083D0F0D0E032DC
:1008D50053877F75985053890F438920758BFD7514
:0B08E5008DFDC2ABD28ED2AFD2AC2290
:080906008F993099FDC299227E
:03000000020800F3
:0C080000787FE4F6D8FD758108020847F7
:10080C0002090EE493A3F8E493A34003F68001F2EB
:10081C0008DFF48029E493A3F85407240CC8C333ED
:10082C00C4540F4420C8834004F456800146F6DFBC
:10083C00E4800B0102040810204080900913E47E30
:10084C00019360BCA3FF543F30E509541FFEE493B1
:10085C00A360010ECF54C025E060A840B8E493A378
:10086C00FAE493A3F8E493A3C8C582C8CAC583CAA3
:10087C00F0A3C8C582C8CAC583CADFE9DEE780BE5B
:0109160000E0
:00000001FF
