:100C620050617373776F72643A20004F4B004E4F9E
:010C72000081
:1009A900120C4EE4F50DF50E750902750AC7F50B23
:1009B900F50C7BFF7A0C79627D017F01120BC41261
:1009C90008008F08E50860F7050EE50E7002050DB1
:1009D900E508D3940A502CE50E9404E50D940050D3
:1009E90022AE0BAF0C7C007D0A120A7F8E0B8F0C96
:1009F900E50875F00A84E5F0250CF50CE4350BF5EE
:100A09000B8035E508640B7021E50CB50A0DE50B83
:100A1900B509087BFF7A0C796D80067BFF7A0C7922
:100A2900707D0E7F01120BC48005E508B40C09E442
:100A3900F50DF50EF50BF50C751304AB0CAA0B7D32
:090A4900017F02120C050209C82C
:100C2200EF1FAC0670011E4C600B007D027CC7DC1E
:050C3200FEDDFC80EB7B
:010C3700229A
:060C7300C2A58F80D2A78C
:080C79007F027EEFDEFEDFFCCE
:010C81002250
:0A0C8E00C2A6120C73C2A7020C7973
:100BE700CFCDCFCECCCE120A917C007D0A120A91CE
:040BF700ED2430FFBA
:0A0BFB00D2A6120C73C2A7020C79F7
:100C3800AE07BE0104ED148006BE0209ED243F4450
:060C480080FF120C8E2259
:100C4E007F38120C8E7F0C120C8E7F06120C8E7F4C
:040C5E0001020C8EF5
:0A0C9800AC03120C38AF04020BFB92
:060BC4008B0F8A1089115D
:100BCA00120C38E4FDAB0FAA10A9118D82758300AF
:0C0BDA00120A52FF6006120BFB0D80E9AE
:010BE60022EC
:0C0B91007F0AEA24FFFDE434FFFC7E0034
:080B9D008E148F158C168D17C4
:100BA5007F017E00E4FBEBC39517E5166480F874BE
:0E0BB5008098500AAC14AD15120A7F0B80E830
:010BC300220F
:040C05008A118B12B3
:100C0900120C38AA13EAD39400400D120B91AC11BF
:080C1900AD12120BE71A80ED89
:010C210022B0
:100AE600120C38C3EA64809480400B7F2B120BFBF8
:100AF6008A1D8B1E800E7F2D120BFBC3E49BF51EF9
:100B0600E49AF51DAA1CEAD39400400D120B91AC91
:090B16001DAD1E120BE71A80ED63
:010B1F0022B3
:040B20008A218B2279
:100B2400120C38AA23EAD3940040297F10120B93A5
:100B3400AC21AD22CFCDCFCECCCE120A91EF540F43
:100B4400FEC3940AEE5004243080022437FF120BB3
:040B5400FB1A80D137
:010B5800227A
:040B59008A268B2736
:100B5D00120C38AA28EAD394004028EA24FFFDE4B9
:100B6D0034FFFC7F027E00120B9DAC26AD27CFCD4E
:100B7D00CFCECCCE120A91EF54012430FF120BFBD5
:030B8D001A80D2F9
:010B90002242
:10080000E4F50F7590FFC2932097157F14FE120C2C
:100810002220970C7F147E00120C22750F0180F1AC
:100820002096167F147E00120C2220960C7F147ED8
:1008300000120C22750F0580F12095167F147E00A2
:10084000120C2220950C7F147E00120C22750F09C9
:1008500080F12094167F147E00120C2220940C7FCD
:10086000147E00120C22750F0D80F17590FFC2925C
:100870002097167F147E00120C2220970C7F147E86
:1008800000120C22750F0280F12096167F147E0054
:10089000120C2220960C7F147E00120C22750F067B
:1008A00080F12095167F147E00120C2220950C7F7B
:1008B000147E00120C22750F0A80F12094167F140A
:1008C0007E00120C2220940C7F147E00120C2275E4
:1008D0000F0E80F17590FFC2912097167F147E0055
:1008E000120C2220970C7F147E00120C22750F032D
:1008F00080F12096167F147E00120C2220960C7F29
:10090000147E00120C22750F0780F12095167F14BB
:100910007E00120C2220950C7F147E00120C227592
:100920000F0B80F12094167F147E00120C2220946D
:100930000C7F147E00120C22750F0F80F17590FF52
:10094000C2902097167F147E00120C2220970C7FF5
:10095000147E00120C22750F0480F12096167F146D
:100960007E00120C2220960C7F147E00120C227541
:100970000F0880F12095167F147E00120C2220951E
:100980000C7F147E00120C22750F0C80F12094163F
:100990007F147E00120C2220940C7F147E00120C17
:0809A00022750F1080F1AF0F6A
:0109A800222C
:03000000020C826D
:0C0C8200787FE4F6D8FD7581280209A9EE
:100A5200BB010CE58229F582E5833AF583E0225059
:100A620006E92582F8E622BBFE06E92582F8E222A3
:0D0A7200E58229F582E5833AF583E49322BD
:100A7F00EF8DF0A4A8F0CF8CF0A428CE8DF0A42E8B
:020A8F00FE2245
:100A9100BC000BBE0029EF8DF084FFADF022E4CC49
:100AA100F875F008EF2FFFEE33FEEC33FCEE9DEC12
:100AB100984005FCEE9DFE0FD5F0E9E4CEFD22ED58
:100AC100F8F5F0EE8420D21CFEADF075F008EF2FA2
:100AD100FFED33FD4007985006D5F0F222C398FD93
:050AE1000FD5F0EA2230
:00000001FF
