:100D6400EF1FAC0670011E4C600B007D027CC7DCDB
:050D7400FEDDFC80EB38
:010D79002257
:0E0D7A00AD071FED60087E021EEE60F480FAE9
:010D88002248
:0601B700012001011E0001
:1008DC00120003120008120D4D120D96EF606612F5
:1008EC000D99EF6030E4F509F50A120C9F050AE545
:1008FC000A70020509C39432E509940040EC120A0F
:10090C002C120D9C120324120D96EF60CC120B2BA3
:10091C001204D880F2E4F509F50A120C9F050AE5D9
:10092C000A70020509C39432E509940040EC1209DF
:10093C00CE120D9C120324120D96EF609C120B6BC1
:10094C001204D880F2120D891204D8120C9F8089DF
:03000B000206B03A
:1006B000C0E0C0F0C083C082C0D075D000C000C010
:0D06C00001C002C003C004C005C006C00791
:1006CD00758A66758CFC051DE51D7002051CE51E01
:1006DD006046FFC374059FFFE49400FE7C007DFA25
:1006ED00120613C3E51D9FE51C9E402C120D96EFBF
:1006FD007020E520B40103120C29E520B402031289
:10070D000BABE520B40303120BEAE520B40403128E
:08071D000C64751C00751D0041
:10072500D007D006D005D004D003D002D001D00028
:0B073500D0D0D082D083D0F0D0E032D2
:1004D80012000E8F1FE51E6038E51F7003020575B8
:1004E800B41009120856752001E4F51EE51FB40280
:1004F8000475200122E51FB40A0475200222E51FB5
:10050800B4050475200322E51F6407706075200494
:100518002220B1147F147E00120D6430B1FD7F14C7
:100528007E00120D64751E0120B0147F147E001227
:100538000D6430B0FD7F147E00120D64751E02201C
:10054800B2147F147E00120D6430B2FD7F147E0059
:10055800120D64751E0320B3147F147E00120D64FF
:0E05680030B3FD7F147E00120D64751E042258
:0D0D8900E51E700812041A1204D880F4222E
:10000E00E4F50B7590FFC2932097157F14FE120D29
:10001E006420970C7F147E00120D64750B0180F125
:10002E002096167F147E00120D6420960C7F147E8F
:10003E0000120D64750B0580F12095167F147E005D
:10004E00120D6420950C7F147E00120D64750B0941
:10005E0080F12094167F147E00120D6420940C7F84
:10006E00147E00120D64750B0D80F17590FFC29217
:10007E002097167F147E00120D6420970C7F147E3D
:10008E0000120D64750B0280F12096167F147E000F
:10009E00120D6420960C7F147E00120D64750B06F3
:1000AE0080F12095167F147E00120D6420950C7F32
:1000BE00147E00120D64750B0A80F12094167F14C5
:1000CE007E00120D6420940C7F147E00120D647558
:1000DE000B0E80F17590FFC2912097167F147E0053
:1000EE00120D6420970C7F147E00120D64750B03A5
:1000FE0080F12096167F147E00120D6420960C7FE0
:10010E00147E00120D64750B0780F12095167F1476
:10011E007E00120D6420950C7F147E00120D647506
:10012E000B0B80F12094167F147E00120D64209428
:10013E000C7F147E00120D64750B0F80F17590FF0D
:10014E00C2902097167F147E00120D6420970C7FAC
:10015E00147E00120D64750B0480F12096167F1428
:10016E007E00120D6420960C7F147E00120D6475B5
:10017E000B0880F12095167F147E00120D642095D9
:10018E000C7F147E00120D64750B0C80F1209416FA
:10019E007F147E00120D6420940C7F147E00120DCD
:0801AE0064750B1080F1AF0B2A
:0101B6002226
:100D2D008F12AF05120CD5AF12A807748008800280
:100D3D00C313D8FCF4F5807F32120D7A7580FF2233
:100D0A00EF14FFC007C374089DFF7E007480A80714
:100D1A00088006CEA2E713CE13D8F8FDAC06D0079A
:030D2A00020D2D8A
:020CD500A9076D
:100CD700E4FBFAAF037E007480A807088006CEA263
:100CE700E713CE13D8F8FFE9FDEF5D24FF92B4D2E6
:100CF700B6C2B60BBB00010AEB64084A70D5D2B581
:020D0700C2B573
:010D090022C7
:05000300C2B6C2B522E7
:1001BD006022009BFF81898F003F4888FF00FF4030
:1001CD0040FF00FF8989890000F090F000E010EFFA
:1001DD000B09000F0A0D602A002900000000000025
:1001ED00000062918946007E818142007E89917E68
:1001FD00007F889463007E89894200000000000022
:10020D0000000000602800537E89917E2141FF018E
:10021D00478991614291917E182848FFF15151040F
:10022D007E91914E808F90606E91916E6291917ED4
:10023D0048007B1F2C61E1ED61201F48008B1F20C2
:10024D00216161E1E01F4800831F2C21616DE1E018
:10025D001F602100000000000000000000FE010EE4
:10026D0001FE0081FF8100FF601806FF00FD000008
:10027D000000000000004800213C42A985A58942EC
:0C028D003C480093FF81A589A98581FFF2
:1009CE00E4F50BF50CE4F50FF510E4F50DF50EAFAF
:1009DE000EE50E250CFDE50D350BFC749B2DF582F9
:1009EE0074003CF583E0FD120D2D050EE50E700230
:1009FE00050DC39408E50D940040D40510E5107064
:100A0E0002050FC39408E50F940040BE050CE50CDB
:0D0A1E007002050BC3941AE50B940040A86C
:010A2B0022A8
:020324008F0B3D
:10032600E4F50CF50DE4F510F511E4F50EF50FAF57
:100336000FE50F250DFDE50E350CFC74292DF58214
:1003460074003CF583E0FD120D2D050FE50F7002DC
:10035600050EC39408E50E940040D40511E511700E
:10036600020510C39408E510940040BE050DE50D86
:100376007002050CC39422E50C940040A8E4F51025
:10038600F511E4F50EF50FE50B75F00A8425E02569
:10039600E02453F582E43400F583E582250FF582E7
:1003A600E583350EF583E0FDAF0F120D2D050FE544
:1003B6000F7002050EC39404E50E940040C9E4F5DF
:1003C6000EF50FE50B75F00A84E5F025E025E0242F
:1003D60053F582E43400F583E582250FF582E58343
:1003E600350EF583E0FDE50F2404FF120D2D050FF4
:1003F600E50F7002050EC39404E50E940040C40593
:1004060011E51170020510C3942CE51094015003F8
:0304160002038856
:0104190022C0
:10041A00E4F50DF50EE4F50BF50CAF0C747B250C29
:10042A00F5827400350BF583E0FD120D2D050CE500
:10043A000C7002050BC39408E50B940040DC050E12
:10044A00E50E7002050DC39464E50D940040C6E400
:10045A00F50DF50EE4F50BF50CAF0C7483250CF5D0
:10046A00827400350BF583E0FD120D2D050CE50CA9
:10047A007002050BC39408E50B940040DC050EE5F9
:10048A000E7002050DC3941EE50D940040C6E4F5F6
:10049A000DF50EE4F50BF50CAF0C748B250CF582FB
:1004AA007400350BF583E0FD120D2D050CE50C707B
:1004BA0002050BC39408E50B940040DC050EE50E1B
:0D04CA007002050DC3940FE50D940040C6AF
:0104D7002202
:100A2C00E4F50BF50CE4F50FF510E4F50DF50EAF50
:100A3C000EE50E250CFDE50D350BFC74002DF58235
:100A4C0074003CF583E0FD120D2D050EE50E7002D1
:100A5C00050DC39408E50D940040D40510E5107005
:100A6C0002050FC39408E50F940040BE050CE50C7D
:0D0A7C007002050BC39419E50B940040A80F
:010A8900224A
:100B2B00E4F50DF50EE4F50BF50CAF0C7421250C6B
:100B3B00F5827400350BF583E0FD120D2D050CE5E8
:100B4B000C7002050BC39408E50B940040DC050EFA
:0F0B5B00E50E7002050DC39403E50D940040C62E
:010B6A002268
:100B6B00E4F50DF50EE4F50BF50CAF0C7493250CB9
:100B7B00F5827400350BF583E0FD120D2D050CE5A8
:100B8B000C7002050BC39408E50B940040DC050EBA
:0F0B9B00E50E7002050DC39403E50D940040C6EE
:010BAA002228
:10029900608000BD010101020000000000000000B3
:1002A9000000000000000000000000000000000045
:1002B9000000000000000000000000000000000035
:1002C9000000000000000000000000000000000025
:1002D9000000000000000000000000000000000015
:1002E9000000000000000000000000000000000005
:1002F90000000000000000000000000000000000F5
:1003090000000000000000000000000000000000E4
:0A03190000000000011902011B00A2
:03000800020A8A5F
:10085600E4FDFCED4C7023ED25E0FFEC33FE74BDAA
:100866002FF58274003EF5837401F074BE2FF58275
:1008760074003EF5837401F08048ED64014C7023EA
:10088600ED25E0FFEC33FE74BD2FF58274003EF5D6
:10089600837401F074BE2FF58274003EF5837402F2
:1008A600F0801FED25E0FFEC33FE74BD2FF582745A
:1008B600003EF583E4F074BE2FF58274003EF583A6
:1008C600E4F00DBD00010CED64404C708675190214
:0508D600E4F51AF51B1A
:0108DB0022FA
:100C9F00E4F50BE50BC395195025E50B25E024BDB5
:100CAF00F582E43400F583E0FFE50B25E024BEF583
:100CBF0082E43400F583E0FD120D0A050B80D4ADFC
:060CCF0018AF17020D0A28
:10095C00E4FDFCE51924FEFFE434FFFEC3ED9FEC3F
:10096C009E503EED25E0FFEC33FE74BF2FF58274F4
:10097C00003EF583E0FB74BD2FF58274003EF583D9
:10098C00EBF074C02FF58274003EF583E0FB74BE6F
:10099C002FF58274003EF583EBF00DBD00010C8049
:1009AC00B2E51925E024B9F582E43400F583E513AA
:1009BC00F0E51925E024BAF582E43400F583E5145A
:0109CC00F03A
:0109CD002207
:100C29009000BDE0F515A3E0F516E51925E024BB14
:100C3900F582E43400F583E0F513E51925E024BCD9
:100C4900F582E43400F583E0F514E51925E024BCC8
:0B0C5900F582E434001205760207CC9F
:100BAB009000BDE0F515A3E0F516E51925E024BB93
:100BBB00F582E43400F583E0F513E51925E024BC58
:100BCB00F582E43400F583E0F514E51925E024BC47
:0F0BDB00F582E43400F583E01412057A0207CCAA
:100BEA009000BDE0F515A3E0F516E51925E024BB54
:100BFA00F582E43400F583E0F513E51925E024BC19
:100C0A00F582E43400F583E0F514E51925E024BB08
:0F0C1A00F582E43400F583E01412057A0207CC6A
:100C64009000BDE0F515A3E0F516E51925E024BBD9
:100C7400F582E43400F583E0F513E51925E024BC9E
:100C8400F582E43400F583E0F514E51925E024BB8E
:0B0C9400F582E434001205760207CC64
:1007CC00E51925E024BBF582E43400F583E06517D8
:1007DC007077E51925E024BCF582E43400F583E05C
:1007EC0065187065AD19FCD3ED9400EC9400403E97
:1007FC00ED25E0FFEC33FE74BB2FF58274003EF563
:10080C0083E0FB74BD2FF58274003EF583EBF0742E
:10081C00BC2FF58274003EF583E0FB74BE2FF5828D
:10082C0074003EF583EBF0ED1D70BC1C80B990009C
:10083C00BDE515F0A3E516F00519E519B42007750B
:09084C001A01751B0122120A8A2F
:010855002280
:08057600F583E004F012095CBA
:10057E00E51925E024BBF582E43400F583E0FFD3D2
:10058E009408501EEF94004019E51925E024BCF59F
:10059E0082E43400F583E0FFD394085005EF940015
:1005AE005003751A01E4FDFCE51924FFFFE434FF46
:1005BE00FEC3ED9FEC9E504CED25E0FFEC33FE7438
:1005CE00BD2FF58274003EF583E0FBE51925E0248E
:1005DE00BBF582E43400F583E0B5032174BE2FF53C
:1005EE008274003EF583E0FFE51925E024BCF58218
:1005FE00E43400F583E0B50704751A01220DBD0041
:04060E00010C80A4B7
:0106120022C5
:030D9600AF1A226F
:030D9900AF1B226B
:100A8A00120ADE7C007D08120625ED04F50B120A17
:100A9A00DE7C007D08120625ED04FFE4FEFDEDC3B1
:100AAA0095195027ED25E024BDF582E43400F5833D
:100ABA00E0B50B14ED25E024BEF582E43400F5839D
:100ACA00E0B507047E0180030D80D3EE70B2850B7A
:030ADA00178F185B
:010ADD0022F6
:030D9C00AF19226A
:100D4D005389F0438901C28DD28C758A66758CFCEE
:070D5D00D2A9D2AFC2B922F6
:03000000020740B4
:0C074000787FE4F6D8FD7581240207875D
:10061300EF8DF0A4A8F0CF8CF0A428CE8DF0A42EFB
:02062300FE22B5
:10062500C2D5EC30E709B2D5E4C39DFDE49CFCEEF0
:1006350030E715B2D5E4C39FFFE49EFE12065BC307
:10064500E49DFDE49CFC800312065B30D507C3E402
:060655009FFFE49EFE225F
:100ADE00AC21AD22AE23AF247810EC4D4E4F7004F6
:100AEE007CA57DA5C3EC13FCED13FDEE13FEEF13F9
:100AFE00FF5010EC64CCFCED644CFDEE644EFEEF4A
:100B0E0064CEFFD8DF8C218D228E238F24EE547F6E
:0D0B1E00FE228E218F2274A5F523F52422DE
:10074C000208DCE493A3F8E493A34003F68001F2DF
:10075C0008DFF48029E493A3F85407240CC8C333AE
:10076C00C4540F4420C8834004F456800146F6DF7D
:10077C00E4800B01020408102040809001B7E47E55
:10078C00019360BCA3FF543F30E509541FFEE49372
:10079C00A360010ECF54C025E060A840B8E493A339
:1007AC00FAE493A3F8E493A3C8C582C8CAC583CA64
:1007BC00F0A3C8C582C8CAC583CADFE9DEE780BE1C
:0103230000D9
:10065B00BC000BBE0029EF8DF084FFADF022E4CC83
:10066B00F875F008EF2FFFEE33FEEC33FCEE9DEC4C
:10067B00984005FCEE9DFE0FD5F0E9E4CEFD22ED92
:10068B00F8F5F0EE8420D21CFEADF075F008EF2FDC
:10069B00FFED33FD4007985006D5F0F222C398FDCD
:0506AB000FD5F0EA226A
:00000001FF
