:0809700012097812088C80FBCB
:0E096100AD071FED60087E021EEE60F480FA06
:01096F002265
:100941008F3AAF051208DCAF3AA80774800880021D
:10095100C313D8FCF4F5807F321209617580FF2240
:0208DC00A9076A
:1008DE00E4FBFAAF037E007480A807088006CEA260
:1008EE00E713CE13D8F8FFE9FDEF5D24FF92B4D2E3
:1008FE00B6C2B60BBB00010AEB64084A70D5D2B57E
:02090E00C2B570
:0109100022C4
:05097800C2B6C2B52269
:10091100202C080000000000000000FF0808FF0074
:10092100FF89898900FF01010100FF01010100FF29
:0F0931008181FF00FD00000000000000000000B9
:10088C00E4F534F535E4F538F539E4F536F537AFFC
:10089C0037EF25352408F8E6FD1209410537E53711
:1008AC0070020536C39408E536940040E20539E53C
:1008BC003970020538C39408E538940040CC0535EE
:0F08CC00E53570020534C39424E534940040B63A
:0108DB0022FA
:03000000020800F3
:0C080000787FE4F6D8FD75813A020847C5
:10080C00020970E493A3F8E493A34003F68001F289
:10081C0008DFF48029E493A3F85407240CC8C333ED
:10082C00C4540F4420C8834004F456800146F6DFBC
:10083C00E4800B0102040810204080900911E47E32
:10084C00019360BCA3FF543F30E509541FFEE493B1
:10085C00A360010ECF54C025E060A840B8E493A378
:10086C00FAE493A3F8E493A3C8C582C8CAC583CAA3
:10087C00F0A3C8C582C8CAC583CADFE9DEE780BE5B
:0109400000B6
:00000001FF
