:10111B00EF1FAC0670011E4C600B007D027CC7DC20
:05112B00FEDDFC80EB7D
:01113000229C
:0E113100AD071FED60087E021EEE60F480FA2E
:01113F00228D
:100CE400E4F5637590FFC2902097157F14FE1211EE
:100CF4001B20970C7F147E0012111B75630480F176
:100D04002096167F147E0012111B20960C7F147EF1
:100D14000012111B75630880F12095167F147E0064
:100D240012111B20950C7F147E0012111B75630C8D
:100D340080F12094167F147E0012111B20940C7FE6
:0D0D4400147E0012111B75631080F1AF6367
:010D5100227F
:1010C4008F6AAF05120FCCAF6AA80774800880023C
:1010D400C313D8FCF4F5807F321211317580FF22DE
:1010A100EF14FFC007C374089DFF7E007480A8077A
:1010B100088006CEA2E713CE13D8F8FDAC06D00700
:0310C1000210C456
:020FCC00A90773
:100FCE00E4FBFAAF037E007480A807088006CEA269
:100FDE00E713CE13D8F8FFE9FDEF5D24FF92B4D2EC
:100FEE00B6C2B60BBB00010AEB64084A70D5D2B587
:020FFE00C2B57A
:0110000022CD
:05114D00C2B6C2B5228C
:1008F6006022005AFF81898F003F4888FF00FF4031
:1009060040FF00FF8989890000F090F000E010EFB9
:100916000B09000F0A0D602A00000000000000000D
:10092600000062918946007E818142007E89917E27
:10093600007F889463007E898942000000000000E1
:1009460000000000602800327E89917E2141FF016F
:10095600478991614291917E182848FFF1515104CF
:100966007E91914E808F90606E91916E6291917E94
:0B09760048002A1F2C61E1E16D201FEA
:100DB200E4F563F564E4F567F568E4F565F566AFB7
:100DC20066E5662564FDE5653563FC745A2DF5829A
:100DD20074003CF583E0FD1210C40566E5667002FE
:100DE2000565C39408E565940040D40568E568701C
:100DF200020567C39408E567940040BE0564E56494
:0D0E020070020563C3941AE563940040A8D4
:010E0F0022C0
:020800008F6304
:10080200E4F564F565E4F568F569E4F566F567AF66
:1008120067E5672565FDE5663564FC74002DF582A4
:1008220074003CF583E0FD1210C40567E5677002B1
:100832000566C39408E566940040D40569E56970CD
:10084200020568C39408E568940040BE0565E56545
:1008520070020564C39422E564940040A8E4F5683C
:10086200F569E4F566F567E56375F00A8425E02528
:10087200E02432F582E43400F583E5822567F582CF
:10088200E5833566F583E0FDAF671210C40567E5C1
:100892006770020566C39404E566940040C9E4F5F6
:1008A20066F567E56375F00A84E5F025E025E02446
:1008B20032F582E43400F583E5822567F582E5832B
:1008C2003566F583E0FDE5672404FF1210C4056771
:1008D200E56770020566C39404E566940040C405AA
:1008E20069E56970020568C3942CE56894015003B8
:0308F20002086495
:0108F50022E0
:100F8C00E4F565F566E4F563F564AF64742A2564ED
:100F9C00F58274003563F583E0FD1210C40564E539
:100FAC006470020563C39408E563940040DC056635
:0F0FBC00E56670020565C3940AE565940040C6BA
:010FCB002203
:101104005389F0438901C28DD28C758A66758CFC33
:07111400D2A9D2AFC2B9223B
:06098100016F01016D0091
:100F450012114D121152121104121155EF602DE4B8
:100F5500F561F56212102C0562E56270020561C348
:100F65009432E561940040EC120DB212115812084A
:100F750000121155EF60D21209DE80F512114012F0
:070F850009DE12102C80C2EE
:03000B00020B568F
:100B5600C0E0C0F0C083C082C0D075D000C000C065
:0D0B660001C002C003C004C005C006C007E6
:100B7300758A66758CFC056CE56C7002056BE56D1A
:100B83006046FFC374059FFFE49400FE7C007DFA7A
:100B9300120AB9C3E56C9FE56B9E402C121155EF09
:100BA3007020E56FB401031210E4E56FB402031281
:100BB300107DE56FB40303121001E56FB404031253
:080BC3001056756B00756C0003
:100BCB00D007D006D005D004D003D002D001D0007E
:0B0BDB00D0D0D082D083D0F0D0E03228
:1009DE00120CE48F6EE56D6075E56E60116410604B
:1009EE0003020AB8120E10756F01E4F56D2220B1E4
:1009FE00157F147E0012111B30B1FD7F147E001284
:100A0E00111B756F012220B0157F147E0012111B71
:100A1E0030B0FD7F147E0012111B756F022220B2C2
:100A2E00157F147E0012111B30B2FD7F147E001252
:100A3E00111B756F032220B3717F147E0012111BE0
:100A4E0030B3FD7F147E0012111B756F042220B18E
:100A5E00147F147E0012111B30B1FD7F147E001224
:100A6E00111B756D0120B0147F147E0012111B3006
:100A7E00B0FD7F147E0012111B756D0220B2147F23
:100A8E00147E0012111B30B2FD7F147E0012111B5A
:100A9E00756D0320B3147F147E0012111B30B3FD4D
:0B0AAE007F147E0012111B756D0422E6
:0D114000E56D7008120F8C1209DE80F4229C
:1009870020500C01010102000000000000000000DF
:100997000000000000000000000000000000000050
:1009A7000000000000000000000000000000000040
:1009B7000000000000000000000000000000000030
:1009C7000000000000000000000000000000000020
:0609D700000000015E02B9
:03115200020EFD8D
:100E1000E4FFFEEF4E7012EF25E0240CF87601EFB0
:100E200025E0240DF876018028EF64014E7012EF62
:100E300025E0240CF87601EF25E0240DF8760280F9
:100E400010EF25E0240CF8E4F6EF25E0240DF8E49B
:100E5000F60FBF00010EEF64284E70B7755E02E416
:020E6000F55F3C
:010E6200226D
:10102C00E4F563E563C3955E5019E56325E0240C94
:10103C00F8E6FFE56325E0240DF8E6FD1210A105A6
:0A104C006380E0AD5DAF5C0210A10F
:100E6300E4FFFEE55E24FEFDE434FFFCC3EF9DEEEC
:100E73009C5027EF25E0240EF8E6FDEF25E0240C37
:100E8300F8A605EF25E0240FF8E6FDEF25E0240D95
:100E9300F8A6050FBF00010E80C9E55E25E0240812
:0C0EA300F8A608E55E25E02409F8A60981
:010EAF002220
:1010E400850C0A850D0BE55E25E0240AF8E6F50873
:1010F400E55E25E0240BF8E6F509120C72020D52A8
:10107D00850C0A850D0BE55E25E0240AF8E6F508DA
:10108D00E55E25E0240BF8E6F50916120E63120C49
:04109D0076020D5278
:10100100850C0A850D0BE55E25E0240AF8E6F50856
:10101100E55E25E0240BF8E6F509E55E25E0240A06
:0B102100F816120E63120C76020D523E
:10105600850C0A850D0BE55E25E0240AF8E6F50801
:10106600E55E25E0240BF8E6F509E55E25E0240AB1
:07107600F8120C72020D528A
:100D5200E55E25E0240AF8E6655C7053E55E25E071
:100D6200240BF8E6655D7047AF5EFED3EF9400EEAC
:100D720094004027EF25E0240AF8E6FDEF25E02461
:100D82000CF8A605EF25E0240BF8E6FDEF25E0249C
:100D92000DF8A605EF1F70D31E80D0850A0C850BB7
:0F0DA2000D055EE55EB42704755F0122120EFD9C
:010DB100221F
:040C720006120E63F5
:100C7600E55E25E0240AF8E6FFD394085018EF94C1
:100C8600004013E55E25E0240BF8E6FFD3940850F8
:100C960005EF94005003755F01E4FFFEE55E24FF57
:100CA600FDE434FFFCC3EF9DEE9C5031EF25E024BC
:100CB6000CF8E6FDE55E25E0240AF8E6B50517EF33
:100CC60025E0240DF8E6FDE55E25E0240BF8E6B503
:0D0CD6000504755F01220FBF00010E80BFF5
:010CE30022EE
:03115500AF5F2267
:100EFD00120EB07C007D08120ACBED04F563120EC4
:100F0D00B07C007D08120ACBED04FFE4FEFDEDC3BD
:100F1D00955E501BED25E0240CF8E6B5630EED252E
:100F2D00E0240DF8E6B507047E0180030D80DFEEA9
:070F3D0070BE85635C8F5D4F
:010F4400228A
:03115800AF5E2265
:03000000020BE60A
:0C0BE600787FE4F6D8FD758173020C2DB9
:100AB900EF8DF0A4A8F0CF8CF0A428CE8DF0A42E51
:020AC900FE220B
:100ACB00C2D5EC30E709B2D5E4C39DFDE49CFCEE46
:100ADB0030E715B2D5E4C39FFFE49EFE120B01C3B2
:100AEB00E49DFDE49CFC8003120B0130D507C3E4AD
:060AFB009FFFE49EFE22B5
:100EB000AC70AD71AE72AF737810EC4D4E4F7004E4
:100EC0007CA57DA5C3EC13FCED13FDEE13FEEF1323
:100ED000FF5010EC64CCFCED644CFDEE644EFEEF74
:100EE00064CEFFD8DF8C708D718E728F73EE547F5D
:0D0EF000FE228E708F7174A5F572F57322CD
:100BF200020F45E493A3F8E493A34003F68001F2C5
:100C020008DFF48029E493A3F85407240CC8C33303
:100C1200C4540F4420C8834004F456800146F6DFD2
:100C2200E4800B01020408102040809008F6E47E64
:100C3200019360BCA3FF543F30E509541FFEE493C7
:100C4200A360010ECF54C025E060A840B8E493A38E
:100C5200FAE493A3F8E493A3C8C582C8CAC583CAB9
:100C6200F0A3C8C582C8CAC583CADFE9DEE780BE71
:0109DD000019
:100B0100BC000BBE0029EF8DF084FFADF022E4CCD8
:100B1100F875F008EF2FFFEE33FEEC33FCEE9DECA1
:100B2100984005FCEE9DFE0FD5F0E9E4CEFD22EDE7
:100B3100F8F5F0EE8420D21CFEADF075F008EF2F31
:100B4100FFED33FD4007985006D5F0F222C398FD22
:050B51000FD5F0EA22BF
:00000001FF
