:100B8800EF1FAC0670011E4C600B007D027CC7DCB9
:050B9800FEDDFC80EB16
:010B9D002235
:0D0BD200120B717F02120B9E12044380FB78
:03000B00020B2CB9
:100B2C00C0E0C0F0C083C082C0D075D000C000C08F
:100B3C0001C002C003C004C005C006C007120BDF11
:100B4C008F8A120BC48F8C120003D007D006D005ED
:100B5C00D004D003D002D001D000D0D0D082D0832A
:050B6C00D0F0D0E032E2
:100B71005389F0438901C28DD28C758A66758CFCCC
:070B8100D2A9D2AFC2B922D4
:1008200000250001001C0001002600010025000138
:1008300000230001001E000100260001001E00012F
:1008400000250001001E000100210001001E000122
:1008500000230001001A000100210001001A00011C
:10086000001E0001001A000100210001001A000111
:100870000023000100160001001A0001001E000103
:1008800000230001001A0001001E000100230001E6
:1008900000250001001C0001001E000100230001D2
:1008A00000250001001C00010026000100250001B8
:1008B00000230001001E000100260001001E0001AF
:1008C00000270001001E000100280001001E000199
:1008D00000270001001E000100260001001E00018B
:1008E000002300040023000100160001001A00018B
:1008F000001E000100230001001A0001001E00017B
:100900000023000100250001001C0001001E000161
:100910000023000100250001001C00010026000149
:100920000025000100230001001E00010026000137
:10093000001E000100250001001E00010021000131
:10094000001E000100230001001A00010021000127
:10095000001A0001001E0001001A00010021000120
:10096000001A00010023000100160001001A000116
:10097000001E000100FF00230001001A0001001EFC
:1009800000010023000100250001001C0001001EE1
:1009900000010023000100250001001C00010026C9
:1009A00000010025000100230001001E00010026B7
:1009B0000001001E000100270001001E00010028A8
:1009C0000001001E000100270001001E000100269A
:1009D0000001001E00010023000400230001001696
:1009E0000001001A0001001E000100230001001A8E
:1009F0000001001E00010023000100250001001C71
:100A00000001001E00010023000100250001001C60
:100A10000001002600010025000100230001001E46
:100A2000000100260001001E000100250001001E3B
:100A3000000100210001001E000100230001001A36
:100A4000000100210001001A0001001E0001001A2F
:100A5000000100210001001A00010023000100161E
:100A60000001001A0001001E000100230001001A0D
:100A70000001001E00010023000100250001001CF0
:100A80000001001E00010023000100250001001CE0
:100A9000000100260001002500010023000800FFDE
:10000E002054080000F88CF8F3F95BF9B8FA15FAE9
:10001E0067FAB9FB04FB4BFB90FBCFFC10FC44FCD6
:10002E0079FCACFCDCFD09FD34FD5CFD82FDA6FD1A
:10003E00C8FDE8FE06FE15FE22FE3DFE56FE6EFED5
:10004E0085FE9AFEAEFEC1FED3FEE4FEF4FF03FF74
:10005E0014FF1CFF24FF2F42000000FF622E00023F
:10006E00001E0002001C000200230002001C000201
:10007E00001E0002001C000200160002001C0002FE
:10008E00001E0002001C000200230002001C0002E1
:10009E00001E0002001C000200160002001C0002DE
:1000AE00001E0002001C000200230002001C0002C1
:1000BE00001E0002001C000200160002001C0002BE
:1000CE00001E0002001C000200230002001C0002A1
:1000DE00001E0002001C000200160002001C00029E
:1000EE00001E0002001C000200230002001C000281
:1000FE00001E0002001C000200160002001C00027E
:10010E00001E0002001C000200230002001C000260
:10011E00001E0002001C000200160002001C00045B
:10012E000000000600000002001E0002001E000576
:10013E0000160001001A0001001E0001001C000440
:10014E0000210004001C0003002500010023000311
:10015E0000220001002300040027000400230004F5
:10016E0000270004002600010026000100270001E0
:10017E0000260001002500020022000200230008D4
:10018E0000000008001A0002001100020016000212
:10019E00001E0002001E000500160001001A0001DC
:1001AE00001E0001001C000400210004001C0002BF
:1001BE00002200020023000200250002001E0001A2
:1001CE0000260001001C000100250001001A00019C
:1001DE00002300010019000100220001002300018C
:1001EE000028000100260001002800010023000164
:1001FE000026000100260001002800010023000156
:10020E000028000100260001002800010023000143
:10021E000028000100260001002800010023000133
:10022E000028000100260001002800010023000123
:10023E000028000100250001002800010023000114
:10024E000028000100240001002800010023000204
:10025E00001E000200250001001E00010025000105
:10026E0000250001001E0001001C0001001E0001FF
:10027E0000250001001800010023000100180001F4
:10028E0000210002001E00010021000100FF61A2FA
:10029E00023000230001001A000100210001001AA3
:1002AE00000100230001001A000100260001001ABF
:1002BE00000100210001001A0001001F0001001AB8
:1002CE000001001E0002001E000100210001001F9F
:1002DE00000100160001001E000100160001001CA6
:1002EE00000100160001001F000100160001001E93
:1002FE00000100160001001C000100160001001A8A
:10030E00000100160001001E000100160001001C75
:10031E000001001200010026000100120001001869
:10032E00000100120001001600010012000100156C
:10033E0000020016000200180004001A000100114D
:10034E0000010018000100110001001A0001001147
:10035E000001001C00010011000100180001001135
:10036E00000100160001001100010014000200112E
:10037E0000010014000100160001000D0001001420
:10038E000001000D000100160001000D0001001A11
:10039E000001000D000100140001000D000100120B
:1003AE000001000D000100110002001100010014F7
:1003BE00000100120002001F0001001E0001001CBF
:1003CE000001001A00010018000100160001001EB5
:1003DE000001001C0001001E0001001F0001001E94
:1003EE000001001C0001001A000100180001001697
:1003FE000002001E000200220002001E0002001673
:10040E0000080023000100160001001A0001001E62
:10041E00000100230001001A0001001E000100234C
:10042E00000100250001001C0001001E0001002338
:04043E00000100FFBA
:100B9E00BF010775620075630122BF020675620010
:040BAE007563022247
:10044300E5636401456260030204F9E55D25E0FFAD
:10045300E55C33FE74002FF58274003EF583E0FE05
:10046300A3E0FFF44E70030204F5EF4E7037055D11
:10047300E55D7002055CC28C25E0FFE55C33FE742C
:10048300002FF58274003EF583E0FEA3E0FF7C00BD
:100493007D6E120BB2120B88D28C055DE55D704F39
:1004A300055C020808E55D25E0FFE55C33FE7400AA
:1004B3002FF58274003EF583E0F55EA3E0F55F055A
:1004C3005DE55D7002055C25E0FFE55C33FE7400CD
:1004D3002FF58274003EF583E0FEA3E0FF7C007DF0
:1004E3006E120BB2120B88055DE55D7002055C02AE
:1004F3000808C28C80FEE56364024562600302085B
:100503001FE561456060030205C4E55D25E0FFE585
:100513005C33FE74022FF58274003EF583E0FEA384
:10052300E0FFF44E70030205B6C2A0EF4E7037052C
:100533005DE55D7002055CC28C25E0FFE55C33FE82
:1005430074022FF58274003EF583E0FEA3E0FF7C86
:10055300007D6E120BB2120B88D28C055DE55D70C7
:1005630002055C020808E55D25E0FFE55C33FE74E7
:10057300022FF58274003EF583E0F55EA3E0F55F9C
:10058300055DE55D7002055C25E0FFE55C33FE7407
:10059300022FF58274003EF583E0FEA3E0FF7C00AA
:1005A3007D6E120BB2120B88055DE55D7002055C72
:1005B300020808756000756103E4F55CF55DD2A07F
:1005C30022E561640345606003020686E55D25E07C
:1005D300FFE55C33FE74302FF58274023EF583E051
:1005E300FEA3E0FFF44E7003020678C2A1EF4E7043
:1005F30037055DE55D7002055CC28C25E0FFE55CB7
:1006030033FE74302FF58274023EF583E0FEA3E0DF
:10061300FF7C007D6E120BB2120B88D28C055DE558
:100623005D7002055C020808E55D25E0FFE55C33CB
:10063300FE74302FF58274023EF583E0F55EA3E08D
:10064300F55F055DE55D7002055C25E0FFE55C3364
:10065300FE74302FF58274023EF583E0FEA3E0FFC3
:100663007C007D6E120BB2120B88055DE55D700296
:10067300055C020808756000756104E4F55CF55DCE
:10068300D2A122E561640445606003020750E55D81
:1006930025E0FFE55C33FE74202FF58274083EF5F8
:1006A30083E493FE740193FFF44E7003020742C286
:1006B300A2EF4E7039055DE55D7002055CC28C25C5
:1006C300E0FFE55C33FE74202FF58274083EF5836A
:1006D300E493FE740193FF7C007D6E120BB2120B48
:1006E30088D28C055DE55D7002055C020808E55D56
:1006F30025E0FFE55C33FE74202FF58274083EF598
:1007030083E493F55E740193F55F055DE55D700227
:10071300055C25E0FFE55C33FE74202FF582740849
:100723003EF583E493FE740193FF7C007D6E120B10
:10073300B2120B88055DE55D7002055C0208087561
:100743006000756105E4F55CF55DD2A222E56164A4
:10075300054560600302081FE55D25E0FFE55C33A6
:10076300FE74762FF58274093EF583E493FE7401DB
:1007730093FFF44E7003020814C2A3EF4E703805C2
:100783005DE55D7002055CC28C25E0FFE55C33FE30
:1007930074762FF58274093EF583E493FE74019316
:1007A300FF7C007D6E120BB2120B88D28C055DE5C7
:1007B3005D7002055C804EE55D25E0FFE55C33FE80
:1007C30074762FF58274093EF583E493F55E740124
:1007D30093F55F055DE55D7002055C25E0FFE55C73
:1007E30033FE74762FF58274093EF583E493FE7429
:1007F3000193FF7C007D6E120BB2120B88055DE541
:100803005D7002055CC28C7F0A7E00120B88D28C5D
:0D08130022E4F55CF55DC28CD2A380FE22CC
:0D0BDF00E55F25E02408F808E6FF7E00220F
:0E0BC400E55F25E02408F8E6FEEEFF7E002245
:03000300B2A52281
:03000000020AA051
:0C0AA000787FE4F6D8FD758163020AE758
:100BB200EF8DF0A4A8F0CF8CF0A428CE8DF0A42E57
:020BC200FE2211
:100AAC00020BD2E493A3F8E493A34003F68001F283
:100ABC0008DFF48029E493A3F85407240CC8C3334B
:100ACC00C4540F4420C8834004F456800146F6DF1A
:100ADC00E4800B010204081020408090000EE47E9C
:100AEC00019360BCA3FF543F30E509541FFEE4930F
:100AFC00A360010ECF54C025E060A840B8E493A3D6
:100B0C00FAE493A3F8E493A3C8C582C8CAC583CA00
:100B1C00F0A3C8C582C8CAC583CADFE9DEE780BEB8
:0104420000B9
:00000001FF
