:100AE200006F006E00650064000B000A0001000048
:100AF200003F0006005B004F0066006D007D0007AE
:040B0200007F006F01
:100A660078087C007D007BFF7A0A79E27E007F10A1
:100A76001208D078187C007D007BFF7A0A79F27E16
:100A8600007F141208D07533007534007535187D53
:100A9600087F011209B97533007534007535187D64
:100AA600077F021209B97533007534007535187B56
:100AB600007A0079087D067C007F037E001209C358
:100AC6007533007534007535187B007A0079087D1A
:0C0AD600057C007F047E001209C380AA8A
:0A09B9007B007A0079087C007E00C4
:1009C3008E2C8F2D8C2E8D2F8B308A318932E52DF5
:1009D30024FFFFE52C34FFFEEF25E0FFEE338F828B
:1009E300F58312092CFBAAF07C007D0AFFAE0212EC
:1009F30008F6EC4D24FF92A27C007D64AF03AE02A7
:100A03001208F67E007F0ACFCDCFCECCCE1208F6E9
:100A1300EE4F24FF92A3E52D24FFFFE52C34FFFEC8
:100A2300EF25E0FFEE33AB30AA318F82F583120955
:100A33002CFFAEF07C007D641208F6EE4F24FF928B
:100A4300A4E52F25E0FFE52E33AB33AA34A9358F78
:100A530082F58312092CF5807F017E00120B06E4D8
:030A6300F58022F9
:100B0600EF1FAC0670011E4C600D0000007D0B7CD3
:070B1600BEDCFEDDFC80E9FE
:010B1D0022B5
:03000000020B1ED2
:0C0B1E00787FE4F6D8FD758135020A6688
:10080000E709F608DFFA8046E709F208DFFA803EDA
:1008100088828C83E709F0A3DFFA8032E309F608C7
:10082000DFFA8078E309F208DFFA807088828C832F
:10083000E309F0A3DFFA806489828A83E0A3F608E3
:10084000DFFA805889828A83E0A3F208DFFA804CBD
:1008500080D280FA80C680D4806980F28033801094
:1008600080A680EA809A80A880DA80E280CA8033FD
:1008700089828A83ECFAE493A3C8C582C8CCC58375
:10088000CCF0A3C8C582C8CCC583CCDFE9DEE78045
:100890000D89828A83E493A3F608DFF9ECFAA9F0C4
:1008A000EDFB2289828A83ECFAE0A3C8C582C8CC1A
:1008B000C583CCF0A3C8C582C8CCC583CCDFEADE33
:1008C000E880DB89828A83E493A3F208DFF980CC95
:1008D00088F0EF60010E4E60C388F0ED2402B4048E
:1008E0000050B9F582EB2402B4040050AF23234535
:0608F00082239008507302
:1008F600C2D5EC30E709B2D5E4C39DFDE49CFCEE1D
:1009060030E715B2D5E4C39FFFE49EFE120964C327
:10091600E49DFDE49CFC800312096430D507C3E422
:060926009FFFE49EFE228B
:10092C00BB0110E58229F582E5833AF583E0F5F009
:10093C00A3E0225009E92582F886F008E622BBFEE6
:10094C000AE92582F8E2F5F008E222E5832AF5832C
:08095C00E993F5F0A3E99322F1
:10096400BC000BBE0029EF8DF084FFADF022E4CC77
:10097400F875F008EF2FFFEE33FEEC33FCEE9DEC40
:10098400984005FCEE9DFE0FD5F0E9E4CEFD22ED86
:10099400F8F5F0EE8420D21CFEADF075F008EF2FD0
:1009A400FFED33FD4007985006D5F0F222C398FDC1
:0509B4000FD5F0EA225E
:00000001FF
