:0709A400010A010208000036
:10094D00E4F50BF50C12097712088C7E00EF60F8B8
:10095D0064017005F50B750C01EF64024E7005F521
:0A096D000B750C02EF64044E80DEEF
:03000B000208EDFB
:0B08ED00C0E0C0D075D000C000C00704
:1008F800758A66758CFC0509E50970020508C394BC
:10090800F4E50894014035750800750900E50C64A4
:1009180001450B700DAF0A7801EF08800103D8FD7F
:10092800F50AE50C6402450B700DAF0A7801EF0873
:0C093800800123D8FDF50AE50AF4F5A0C3
:09094400D007D000D0D0D0E03281
:10088C00E4F50D20B1137F14FE12098E30B1FD7FFB
:10089C00147E0012098E750D0120B0147F147E0099
:1008AC0012098E30B0FD7F147E0012098E750D0278
:1008BC0020B2147F147E0012098E30B2FD7F147E9C
:1008CC000012098E750D0320B3147F147E001209DB
:1008DC008E30B3FD7F147E0012098E750D04AF0DA2
:0108EC0022E9
:100977005389F0438901C28DD28C758A66758CFCC8
:07098700D2A9D2AFC2B922D0
:10098E00EF1FAC0670011E4C600B007D027CC7DCB5
:05099E00FEDDFC80EB12
:0109A3002231
:03000000020800F3
:0C080000787FE4F6D8FD75810D020847F2
:10080C0002094DE493A3F8E493A34003F68001F2AC
:10081C0008DFF48029E493A3F85407240CC8C333ED
:10082C00C4540F4420C8834004F456800146F6DFBC
:10083C00E4800B01020408102040809009A4E47E9F
:10084C00019360BCA3FF543F30E509541FFEE493B1
:10085C00A360010ECF54C025E060A840B8E493A378
:10086C00FAE493A3F8E493A3C8C582C8CAC583CAA3
:10087C00F0A3C8C582C8CAC583CADFE9DEE780BE5B
:0109AB00004B
:00000001FF
