:100C9600EF1FAC0670011E4C600B007D027CC7DCAA
:050CA600FEDDFC80EB07
:010CAB002226
:060CE900C2A58F80D2A716
:080CEF007F027EEFDEFEDFFC58
:010CF70022DA
:0A0D0400C2A6120CE9C2A7020CEF10
:100C5B00CFCDCFCECCCE120B057C007D0A120B056F
:040C6B00ED2430FF45
:0A0C6F00D2A6120CE9C2A7020CEF96
:100CAC00AE07BE0104ED148006BE0209ED243F44DC
:060CBC0080FF120D04226E
:100CC2007F38120D047F0C120D047F06120D047F73
:040CD20001020D040A
:0A0D0E00AC03120CACAF04020C6F32
:060C38008B168A178918D3
:100C3E00120CACE4FDAB16AA17A9188D82758300B1
:0C0C4E00120AC6FF6006120C6F0D80E950
:010C5A002277
:0C0C05007F0AEA24FFFDE434FFFC7E00BF
:080C11008E1B8F1C8C1D8D1E33
:100C19007F017E00E4FBEBC3951EE51D6480F8743B
:0E0C29008098500AAC1BAD1C120AF30B80E839
:010C3700229A
:040C79008A188B1931
:100C7D00120CACAA1AEAD39400400D120C05AC1854
:080C8D00AD19120C5B1A80ED99
:010C9500223C
:100B5A00120CACC3EA64809480400B7F2B120C6F9A
:100B6A008A248B25800E7F2D120C6FC3E49BF525FA
:100B7A00E49AF524AA23EAD39400400D120C05AC9A
:090B8A0024AD25120C5B1A80ED6C
:010B9300223F
:040B94008A288B29F7
:100B9800120CACAA2AEAD3940040297F10120C0741
:100BA800AC28AD29CFCDCFCECCCE120B05EF540F4C
:100BB800FEC3940AEE5004243080022437FF120C3E
:040BC8006F1A80D14F
:010BCC002206
:040BCD008A2D8B2EB4
:100BD100120CACAA2FEAD394004028EA24FFFDE4CA
:100BE10034FFFC7F027E00120C11AC2DAD2ECFCD57
:100BF100CFCECCCE120B05EF54012430FF120C6F77
:030C01001A80D284
:010C040022CD
:100CD60050617373776F72643A2000455252005622
:030CE600414C007E
:1009A900120CC275101675114F7BFF7A0C79D67D22
:1009B900017F01120C38E4F512F513F508F509F574
:1009C9000AF50BF50CF50DF50EF50F120800EF60A1
:1009D900FA0513E51370020512640145127006EF5A
:1009E900750800F509E513640245127006EF750AEA
:1009F90000F50BE513640345127006EF750C00F55D
:100A09000DE513640445127004F50E8F0F751A0174
:100A1900AB09AA087D017F02120C79751A01AB0B8B
:100A2900AA0A7D027F02120C79751A01AB0DAA0C74
:100A39007D037F02120C79751A01AB0FAA0E7D0492
:100A49007F02120C79E5136404451260030209D48C
:100A5900AE0AAF0BFC7D64120AF3AA06AB07AE0817
:100A6900AF097C037DE8120AF3EF2BFBEE3AFAAEED
:100A79000CAF0D7C007D0A120AF3EF2BFFEE3AFE54
:100A8900E50F2FFFE50E3EFEEF65117003EE6510D1
:100A99007BFF60067A0C79E180047A0C79E57D0E9A
:100AA9007F01120C38E4F508F509F50AF50BF50C88
:0D0AB900F50DF50EF50FF512F5130209D439
:10080000E4F5167590FFC2932097157F14FE120C25
:100810009620970C7F147E00120C9675160180F1BD
:100820002096167F147E00120C9620960C7F147E64
:1008300000120C9675160580F12095167F147E0027
:10084000120C9620950C7F147E00120C96751609DA
:1008500080F12094167F147E00120C9620940C7F59
:10086000147E00120C9675160D80F17590FFC292E1
:100870002097167F147E00120C9620970C7F147E12
:1008800000120C9675160280F12096167F147E00D9
:10089000120C9620960C7F147E00120C967516068C
:1008A00080F12095167F147E00120C9620950C7F07
:1008B000147E00120C9675160A80F12094167F148F
:1008C0007E00120C9620940C7F147E00120C9675FC
:1008D000160E80F17590FFC2912097167F147E004E
:1008E000120C9620970C7F147E00120C967516033E
:1008F00080F12096167F147E00120C9620960C7FB5
:10090000147E00120C9675160780F12095167F1440
:100910007E00120C9620950C7F147E00120C9675AA
:10092000160B80F12094167F147E00120C962094F2
:100930000C7F147E00120C9675160F80F17590FFD7
:10094000C2902097167F147E00120C9620970C7F81
:10095000147E00120C9675160480F12096167F14F2
:100960007E00120C9620960C7F147E00120C967559
:10097000160880F12095167F147E00120C962095A3
:100980000C7F147E00120C9675160C80F1209416C4
:100990007F147E00120C9620940C7F147E00120CA3
:0809A0009675161080F1AF16E8
:0109A800222C
:03000000020CF8F7
:0C0CF800787FE4F6D8FD75812F0209A971
:100AC600BB010CE58229F582E5833AF583E02250E5
:100AD60006E92582F8E622BBFE06E92582F8E2222F
:0D0AE600E58229F582E5833AF583E4932249
:100AF300EF8DF0A4A8F0CF8CF0A428CE8DF0A42E17
:020B0300FE22D0
:100B0500BC000BBE0029EF8DF084FFADF022E4CCD4
:100B1500F875F008EF2FFFEE33FEEC33FCEE9DEC9D
:100B2500984005FCEE9DFE0FD5F0E9E4CEFD22EDE3
:100B3500F8F5F0EE8420D21CFEADF075F008EF2F2D
:100B4500FFED33FD4007985006D5F0F222C398FD1E
:050B55000FD5F0EA22BB
:00000001FF
