:070882007F7D7E00020800EB
:0408890075A0AB2289
:10084B0075A0557FF47E0112086175A0AA7FF47E16
:06085B000112086180EAB1
:10086100EF4E6010007D027CC7DCFEDDFCEF1F70E7
:04087100EF1E80EC0A
:010875002260
:04080000AB07AA0692
:10080400900001E58264014583601AAF82EFF4F53C
:10081400A0E583C313F583E58213F582AF03AE022B
:1008240012086180DEE5826480458360D6AF82EF82
:10083400F4F5A0E58225E0F582E58333F583AF0383
:07084400AE0212086180DE24
:030000000208767D
:0C087600787FE4F6D8FD75810702088247
:00000001FF
