:10080000750800750980E509F4F5A020B329E5090C
:100810006480450860217F147E0012086330B3FDB8
:100820007F147E00120863E50925E0F509E5083329
:10083000F508E509F4F5A020B1D1E5096401450802
:1008400060C97F147E0012086330B1FD7F147E0002
:10085000120863E508C313F508E50913F509F4F573
:03086000A080A8CD
:10086300EF4E60120000007D0B7CBEDCFEDDFCEF72
:060873001F70ED1E80EA7B
:01087900225C
:0300000002087A79
:0C087A00787FE4F6D8FD758109020800C3
:00000001FF
