:0308D90001080013
:10088C001208A4E4FF1208D17FE87E031208BB050E
:08089C0008AF081208D180F03A
:1008A40053877F75985053890F438920758BFD7545
:0708B4008DFDC2ABD28E22C4
:0808D1008F993099FDC29922B4
:1008BB00EF1FAC0670011E4C600B007D027CC7DC89
:0508CB00FEDDFC80EBE6
:0108D0002205
:03000000020800F3
:0C080000787FE4F6D8FD758108020847F7
:10080C0002088CE493A3F8E493A34003F68001F26E
:10081C0008DFF48029E493A3F85407240CC8C333ED
:10082C00C4540F4420C8834004F456800146F6DFBC
:10083C00E4800B01020408102040809008D9E47E6B
:10084C00019360BCA3FF543F30E509541FFEE493B1
:10085C00A360010ECF54C025E060A840B8E493A378
:10086C00FAE493A3F8E493A3C8C582C8CAC583CAA3
:10087C00F0A3C8C582C8CAC583CADFE9DEE780BE5B
:0108DC00001B
:00000001FF
