:0E0BF0004B657920707265737365643A20005E
:100B1B00120BCD7BFF7A0B79F07D017F01120B431A
:100B2B001208008F08E50860F7FB7A00750D027D4F
:080B3B00017F02120B8480E827
:100BA100EF1FAC0670011E4C600B007D027CC7DCA0
:050BB100FEDDFC80EBFD
:010BB600221C
:060BE100C2A58F80D2A71F
:080BE7007F027EEFDEFEDFFC61
:010BEF0022E3
:0A0C0A00C2A6120BE1C2A7020BE71D
:100B6600CFCDCFCECCCE1209E87C007D0A1209E8A3
:040B7600ED2430FF3B
:0A0B7A00D2A6120BE1C2A7020BE79E
:100BB700AE07BE0104ED148006BE0209ED243F44D2
:060BC70080FF120C0A225F
:100BCD007F38120C0A7F0C120C0A7F06120C0A7F5A
:040BDD0001020C0AFB
:0A0C1400AC03120BB7AF04020B7A19
:060B43008B098A0A890BF0
:100B4900120BB7E4FDAB09AA0AA90B8D82758300C4
:0C0B59001209A9FF6006120B7A0D80E95A
:010B6500226D
:0C0AE8007F0AEA24FFFDE434FFFC7E00DE
:080AF4008E0E8F0F8C108D1186
:100AFC007F017E00E4FBEBC39511E5106480F87474
:0E0B0C008098500AAC0EAD0F1209D60B80E88F
:010B1A0022B8
:040B84008A0B8B0C41
:100B8800120BB7AA0DEAD39400400D120AE8AC0B79
:080B9800AD0C120B661A80ED92
:010BA0002232
:100A3D00120BB7C3EA64809480400B7F2B120B7AA4
:100A4D008A178B18800E7F2D120B7AC3E49BF51835
:100A5D00E49AF517AA16EAD39400400D120AE8ACF1
:090A6D0017AD18120B661A80ED9A
:010A7600225D
:040A77008A1B8B1C2F
:100A7B00120BB7AA1DEAD3940040297F10120AEA81
:100A8B00AC1BAD1CCFCDCFCECCCE1209E8EF540FA3
:100A9B00FEC3940AEE5004243080022437FF120B5D
:040AAB007A1A80D162
:010AAF002224
:040AB0008A208B21EC
:100AB400120BB7AA22EAD394004028EA24FFFDE4EB
:100AC40034FFFC7F027E00120AF4AC20AD21CFCDAE
:100AD400CFCECCCE1209E8EF54012430FF120B7AAA
:030AE4001A80D2A3
:010AE70022EC
:10080000E4F5097590FFC2932097157F14FE120B33
:10081000A120970C7F147E00120BA175090180F1B5
:100820002096167F147E00120BA120960C7F147E5A
:1008300000120BA175090580F12095167F147E002A
:10084000120BA120950C7F147E00120BA1750909D3
:1008500080F12094167F147E00120BA120940C7F4F
:10086000147E00120BA175090D80F17590FFC292E4
:100870002097167F147E00120BA120970C7F147E08
:1008800000120BA175090280F12096167F147E00DC
:10089000120BA120960C7F147E00120BA175090685
:1008A00080F12095167F147E00120BA120950C7FFD
:1008B000147E00120BA175090A80F12094167F1492
:1008C0007E00120BA120940C7F147E00120BA175E8
:1008D000090E80F17590FFC2912097167F147E005B
:1008E000120BA120970C7F147E00120BA175090337
:1008F00080F12096167F147E00120BA120960C7FAB
:10090000147E00120BA175090780F12095167F1443
:100910007E00120BA120950C7F147E00120BA17596
:10092000090B80F12094167F147E00120BA12094F5
:100930000C7F147E00120BA175090F80F17590FFDA
:10094000C2902097167F147E00120BA120970C7F77
:10095000147E00120BA175090480F12096167F14F5
:100960007E00120BA120960C7F147E00120BA17545
:10097000090880F12095167F147E00120BA12095A6
:100980000C7F147E00120BA175090C80F1209416C7
:100990007F147E00120BA120940C7F147E00120B9A
:0809A000A175091080F1AF09F7
:0109A800222C
:03000000020BFEF2
:0C0BFE00787FE4F6D8FD758122020B1B05
:1009A900BB010CE58229F582E5833AF583E0225003
:1009B90006E92582F8E622BBFE06E92582F8E2224D
:0D09C900E58229F582E5833AF583E4932267
:1009D600EF8DF0A4A8F0CF8CF0A428CE8DF0A42E35
:0209E600FE22EF
:1009E800BC000BBE0029EF8DF084FFADF022E4CCF3
:1009F800F875F008EF2FFFEE33FEEC33FCEE9DECBC
:100A0800984005FCEE9DFE0FD5F0E9E4CEFD22ED01
:100A1800F8F5F0EE8420D21CFEADF075F008EF2F4B
:100A2800FFED33FD4007985006D5F0F222C398FD3C
:050A38000FD5F0EA22D9
:00000001FF
